:020000040800F2
:1000000038520020E90200088D2900083F25000829
:10001000AD2800081F060008D934000800000000C1
:10002000000000000000000000000000290200089D
:100030004F0700080000000085020008772A00082A
:100040000303000803030008030300080303000878
:100050000303000803030008030300080303000868
:100060000303000803030008030300080303000858
:100070000303000803030008030300080303000848
:100080000303000803030008030300080303000838
:100090000303000803030008030300080303000828
:1000A0000303000803030008030300080303000818
:1000B0000303000803030008030300080303000808
:1000C00003030008030300080303000803030008F8
:1000D00003030008C93400080303000803030008F1
:1000E00003030008030300080303000803030008D8
:1000F00003030008392B000803030008030300086A
:1001000003030008030300080303000803030008B7
:1001100003030008030300080303000803030008A7
:100120000303000803030008250600080303000872
:1001300003030008000000000000000003030008A3
:100140000303000803030008030300080303000877
:100150000303000803030008350600080303000832
:100160000303000803030008030300080303000857
:100170000303000803030008000000000000000063
:10018000030300080303000800F002F800F03CF845
:100190000AA090E8000C82448344AAF10107DA45E2
:1001A00001D100F031F8AFF2090EBAE80F0013F0F8
:1001B000010F18BFFB1A43F001031847185600003F
:1001C00038560000103A24BF78C878C1FAD85207D0
:1001D00024BF30C830C144BF04680C6070470000C1
:1001E0000023002400250026103A28BF78C1FBD840
:1001F000520728BF30C148BF0B6070471FB505F0DC
:1002000077FA1FBD10B510BD00F0D0F91146FFF709
:10021000F5FF03F099F900F0EEF903B4FFF7F2FFF0
:1002200003BC00F0F5F900002C4B19680868B0E831
:10023000F04F80F30988BFF36F8F4FF0000080F319
:10024000118870470000000008480068006880F3CB
:1002500008884FF0000080F3148862B661B6BFF3DF
:100260004F8FBFF36F8F00DF00BF00BF08ED00E0CE
:10027000DFF80C00016841F470010160704700BFB5
:1002800088ED00E0EFF30980BFF36F8F134B1A681E
:100290001EF0100F08BF20ED108A20E9F04F10600B
:1002A00009B44FF0500080F31188BFF34F8FBFF3B4
:1002B0006F8F04F019FB4FF0000080F3118809BC28
:1002C00019680868B0E8F04F1EF0100F08BFB0ECD6
:1002D000108A80F30988BFF36F8F704728000020D1
:1002E000EFF3058070470000094880470948004740
:1002F000FEE7FEE7FEE7FEE7FEE7FEE7FEE7FEE7D6
:10030000FEE7FEE704480549054A064B7047000032
:10031000252B000889010008384C002038520020A5
:10032000384E0020384E002053EA020C00F069805D
:100330002DE9F04B4FF00006002B1FBFB3FA83F5F9
:1003400003FA05F424FA05F65E4012BF1643B2FA2A
:1003500082F502FA05F4C5F120051EBF22FA05FC5C
:1003600044EA0C04203556EA044C4FEA144418BF02
:10037000641C4FF000084FF00009904271EB030C31
:1003800039D3002919BFB1FA81F701FA07F6B0FA9B
:1003900080F700FA07F6C7F120071EBF20FA07FC16
:1003A00046EA0C062037B6FBF4FCA7EB0507103F26
:1003B00007F01F0BCBF120060CFA0BFB2CFA06F60C
:1003C00044BFB3460026202FA4BF5E464FF0000B6B
:1003D0005BEA060C08BF4FF0010B19EB0B09ABFBF6
:1003E000027C48EB0608C01B06FB02CC0BFB03CCCF
:1003F00071EB0C01C1E70B46024641464846BDE899
:10040000F08B13B54FF000004FF00001AFF3008008
:10041000BDE81C407047032A40F2308010F0030C06
:1004200000F0158011F8013BBCF1020F624498BF47
:1004300011F801CB00F8013B38BF11F8013BA2F1E4
:10044000040298BF00F801CB38BF00F8013B11F05F
:10045000030300F07980083AC0F0088051F8043BAB
:10046000083A51F804CBA0E80810F5E7121D5CBF6C
:1004700051F8043B40F8043BAFF30080D20724BF9F
:1004800011F8013B11F801CB48BF11F8012B24BF33
:1004900000F8013B00F801CB48BF00F8012B704782
:1004A00002F0FF0343EA032242EA024200F002B8EC
:1004B0004FF000020429C0F0128010F0030C00F08D
:1004C0001B80CCF1040CBCF1020F18BF00F8012B0B
:1004D000A8BF20F8022BA1EB0C0100F00DB85FEAD9
:1004E000C17C24BF00F8012B00F8012B48BF00F8A5
:1004F000012B70474FF0000200B513469446964614
:10050000203922BFA0E80C50A0E80C50B1F1200126
:10051000BFF4F7AF090728BFA0E80C5048BF0CC0D4
:100520005DF804EB890028BF40F8042B08BF704732
:1005300048BF20F8022B11F0804F18BF00F8012BA4
:10054000704770477047704710B5203AC0F00B8075
:10055000B1E81850203AA0E81850B1E81850A0E8C7
:100560001850BFF4F5AF5FEA027C24BFB1E8185021
:10057000A0E8185044BF18C918C0BDE810405FEA91
:10058000827C24BF51F8043B40F8043B08BF70470D
:10059000D20728BF31F8023B48BF11F8012B28BF12
:1005A00020F8023B48BF00F8012B7047754600F069
:1005B0002BF8AE4605006946534620F007008546F5
:1005C00018B020B5FFF79EFEBDE820404FF00006B2
:1005D0004FF000074FF000084FF0000B21F007012B
:1005E000AC46ACE8C009ACE8C009ACE8C009ACE86E
:1005F000C0098D46704710B50446AFF30080204611
:10060000BDE81040FFF709BE00487047D84B0020F6
:1006100001491820ABBEFEE726000200704700BF6C
:10062000FEE7000010B5024800F000F910BD000020
:10063000C001002010B5024800F0F8F810BD00001D
:10064000200200200146087810381823B0FBF3F28E
:100650000848805CC865032A05D908686FF309005B
:10066000001D886503E008686FF309008865886DE0
:100670007047000068570008014600208A6A8B69AD
:10068000CBB932B1012A0DD0022A03D0032A10D1EE
:100690000EE000BFCB6A03F08073B3F1807F00D11E
:1006A000012007E0CB6AB3F1C07F00D1012001E057
:1006B00000E000BF34E08B69B3F5005F1AD132B1BE
:1006C000012A07D0022A03D0032A11D10AE000BF71
:1006D00001200EE0CB6A03F08073B3F1807F00D17C
:1006E000012006E0CB6AB3F1C07F00D1012000E019
:1006F00000BF15E032B1012A05D0022A04D0032A36
:100700000CD103E000BF00BF012008E0CB6A03F07A
:100710008073B3F1807F00D1012000E000BF00BFF3
:10072000704730B50468246824F4802405682C6080
:10073000046863608468402C04D10468A260046883
:10074000E16003E00468A1600468E26030BD7047C6
:1007500072B600BFFEE770B50446A56D00F046FB1B
:10076000064694F83500022808D08020606500BF56
:10077000002084F8340000BF012070BD20680068AC
:1007800020F01600216808602068406920F0800091
:1007900021684861206C08B9A06C28B12068006805
:1007A00020F00800216808602068006820F001003F
:1007B0002168086010E000F019FB801B05280BD9A8
:1007C00020206065032084F8350000BF002084F8F5
:1007D000340000BF0320D0E72068006800F001006B
:1007E0000028E8D194F85C103F208840A8600120E0
:1007F00084F8350000BF002084F8340000BF00BF3B
:10080000BBE7014691F83500022803D080204865F7
:1008100001207047052081F835000868006820F045
:1008200001000A6810600020F3E70000F8B50446F4
:10083000002000908C4800684FF41651B0FBF1F78F
:10084000A56D2E6894F85C1008208840304098B15F
:100850002068006800F0040070B12068006820F093
:1008600004002168086094F85C1008208840A860A3
:10087000606D40F00100606594F85C1001208840D4
:10088000304068B12068406900F0800040B194F8C1
:100890005C1001208840A860606D40F00200606537
:1008A00094F85C1004208840304068B120680068EB
:1008B00000F0020040B194F85C1004208840A86069
:1008C000606D40F00400606594F85C101020884072
:1008D000304078B32068006800F0080050B394F806
:1008E0005C1010208840A8602068006800F4802018
:1008F00080B12068006800F4002028B9206CC8B1DD
:100900002046216C884715E0A06C98B12046A16C68
:1009100088470FE02068006800F4807028B92068DC
:10092000006820F0080021680860206C10B12046A3
:10093000216C884794F85C102020884030400028C3
:1009400065D02068006800F0100000285FD094F89F
:100950005C1020208840A86094F83500052828D134
:100960002068006820F0160021680860206840694F
:1009700020F0800021684861206C08B9A06C28B183
:100980002068006820F008002168086094F85C1076
:100990003F208840A860012084F8350000BF002077
:1009A00084F8340000BF206D10B12046216D8847C7
:1009B000F8BD2068006800F4802080B120680068DD
:1009C00000F4002028B9606C10B12046616C8847A3
:1009D0001DE0E06BD8B12046E16B884717E0206846
:1009E000006800F4807068B92068006820F010008A
:1009F00021680860012084F8350000BF002084F8D9
:100A0000340000BFE06B10B12046E16B8847606D99
:100A100038B3606D00F00100F0B1052084F83500B6
:100A20002068006820F001002168086000BF00987D
:100A3000401C0090B84200D905E02068006800F032
:100A400001000028F3D100BF012084F8350000BF69
:100A5000002084F8340000BFE06C10B12046E16C47
:100A6000884700BFA4E70000240000202DE9F041E2
:100A70000446002500F0BAF9074614B90120BDE884
:100A8000F081606A00B100BF022084F8350000BF29
:100A9000002084F8340000BF2068006820F00100C6
:100AA000216808600AE000F0A1F9C01B052805D9FB
:100AB00020206065032084F83500E0E720680068A6
:100AC00000F001000028EED12068056821480540AB
:100AD000D4E901010843E1680843216908436169D9
:100AE0000843A1690843E1690843216A08430543B3
:100AF000606A042803D1D4E90B0108430543206848
:100B000005602068456925F00705606A0543606A4D
:100B100004280DD1A06A0543E06A48B12046FFF7DA
:100B2000ABFD28B140206065012084F83500A6E7C0
:100B3000206845612046FFF785FD064694F85C1065
:100B40003F208840B06000206065012084F83500B7
:100B5000002094E73F8010F02DE9F04704460D4651
:100B600016461F464FF00008D4F8589000BF94F87E
:100B70003400012802D10220BDE8F087012084F86A
:100B8000340000BF94F83500012825D1022084F8F4
:100B90003500002060653B46324629462046FFF777
:100BA000C0FD94F85C103F208840C9F80800206818
:100BB000006840F0160021680860206C28B12068A9
:100BC000006840F00800216808602068006840F074
:100BD00001002168086006E000BF002084F83400AE
:100BE00000BF4FF002084046C6E70000F8B50246D5
:100BF0000B460025002400200021D6E0012606FA3D
:100C000001F51E6806EA0504AC4274D11E7906F0AF
:100C10000306012E04D01E7906F00306022E13D11E
:100C200090684F000326BE40B0434F00DE68BE40D0
:100C300030439060506801268E40B0431E79C6F361
:100C400000168E40304350601E7906F00306032ED6
:100C500009D0D0684F000326BE40B0434F009E68C5
:100C6000BE403043D0601E7906F00306022E13D139
:100C7000CF0802F1200656F827004E07F70E0F2680
:100C8000BE40B0434F07FF0E1E69BE403043CF0841
:100C900002F1200646F8270010684F000326BE40E8
:100CA000B0431E7906F003064F00BE40304310608B
:100CB0005E6806F44036002E76D000BF002600960F
:100CC0003C4E366846F480463A4F3E603E463668B3
:100CD00006F48046009600BF00BF374E8F0856F8D6
:100CE00027008E07370F0F26BE40B043334EB24267
:100CF00002D1002624E057E0314EB24201D1012654
:100D00001EE0304EB24201D1022619E02E4EB24210
:100D100001D1032614E02D4EB24201D104260FE08A
:100D20002B4EB24201D105260AE02A4EB24201D131
:100D3000062605E0284EB24201D1072600E008262B
:100D40008F073F0FBE4030431B4E8F0846F82700E9
:100D5000224E3068A0435E6806F4801606B1204338
:100D60001E4E3060361D3068A0435E6806F40016E3
:100D700006B12043194E361D3060184E361F3068BC
:100D8000A0435E6806F4003606B12043134E361FBA
:100D90003060361F3068A0435E6806F4803606B1C6
:100DA00020430E4E083E3060491C1029FFF426AF48
:100DB000F8BD0000443802400838014000000240FD
:100DC0000004024000080240000C024000100240F3
:100DD0000014024000180240001C0240083C014080
:100DE0000AB1816101E00B0483617047014800682A
:100DF0007047000018000020034800680349097884
:100E000008440149086070471800002020000020B5
:100E100010B50D48006840F400700B4908600846A2
:100E2000006840F4806008600846006840F4807004
:100E30000860032000F0E0F80F2000F007F800F051
:100E40005FF8002010BD0000003C02402DE9F04199
:100E500088B004460027B84600BF00200190234810
:100E6000006840F48070214908600846006800F47A
:100E70008070019000BF00BF02A903A800F092F9A2
:100E8000069F1FB900F0B6F9054602E000F0B2F97E
:100E900045001748B5FBF0F0A0F1010815481649C8
:100EA000086040F2E7311448C160C0F804800021B6
:100EB00001618160816100F0BFFC064696B90E4871
:100EC00000F01EFD06466EB92D2000F043F8102CF0
:100ED00007D2002221462D2000F050F80748046078
:100EE00000E00126304608B0BDE8F08140380240FD
:100EF00040420F0000200040800200201C00002023
:100F000008B500BF002000901148006840F4804000
:100F10000F4908600846006800F48040009000BF58
:100F200000BF00BF00200090081F006840F0805004
:100F3000091F08600846006800F08050009000BF5C
:100F400000BF00220F21901E00F018F808BD00001D
:100F5000443802400146084600280DDB00BF00BFB0
:100F600000F01F0301229A4043099B0003F1E02394
:100F7000C3F8002100BF00BF00BF70472DE9F05F3C
:100F800080460D461646002702F0A8FA0746394665
:100F90002A46334601F00700C0F1070ABAF1040FF0
:100FA00002D94FF0040A01E0C0F1070AD14600F16E
:100FB000040ABAF1070F02D24FF0000A01E0A0F1D3
:100FC000030AD4464FF0010A0AFA09FAAAF1010A03
:100FD0000AEA020A0AFA0CFA4FF0010B0BFA0CFBB0
:100FE000ABF1010B0BEA030B4AEA0B042146404626
:100FF00002F07CFABDE8F09F00BF00F00702064B4C
:1010000019684FF6FF031940044B0B4343EA0221D2
:10101000014B196000BF70470CED00E00000FA05BD
:1010200070B504460D460CB9012070BD58480068E3
:1010300000F00700A84209D255490D700846006823
:1010400000F00700A84201D00120EEE7207800F070
:10105000020002281DD1207800F00400042805D1E8
:101060004C48006840F4E0504A490860207800F09D
:101070000800082805D14748006840F46040454909
:1010800008604448006820F0F000A1680843414926
:101090000860207800F00100A8B36068012807D13B
:1010A0003C4808380068C0F34040B8B90120BCE7AC
:1010B0006068022802D06068032807D135480838E4
:1010C0000068C0F3406048B90120AEE731480838F5
:1010D0000068C0F3400008B90120A6E72D48006869
:1010E00020F00300616808432A490860FFF77EFE8C
:1010F000064609E0FFF77AFE801B41F288318842FC
:1011000002D9032091E707E02248006800F00C00B4
:101110006168B0EB810FEDD11D48006800F0070059
:10112000A84209D91A490D700846006800F0070066
:10113000A84201D0012078E7207800F004000428BC
:1011400007D11448006820F4E050E16808431149D1
:101150000860207800F00800082808D10D480068D1
:1011600020F46040216940EAC1000A49086000F0AB
:1011700061F808490968C1F30311074A515CC84086
:101180000649086006480068FFF760FE00204CE74B
:10119000003C02400838024070570008240000203C
:1011A0001C0000200F2202600D4A126802F00302A8
:1011B00042600B4A126802F0F0028260084A12682C
:1011C00002F4E052C260064A126802F46042D20899
:1011D0000261044A126802F007020A6070470000C8
:1011E00008380240003C0240014800687047000097
:1011F0002400002000B5FFF7F7FF04490968C1F398
:101200008221034A515CC84000BD000008380240FA
:101210008057000800B5FFF7E7FF04490968C1F3EC
:101220004231034A515CC84000BD0000083802400A
:10123000805700082DE9F047002400250026A1462C
:101240002548006800F00C0020B1042805D00828CB
:101250003AD105E0DFF8849039E0DFF8849036E099
:101260001D48001F006800F03F041B48001F006875
:1012700000F4800078B11A481749091F0968C1F3C2
:101280008811A0FB01700146224600233846FFF773
:101290004BF805460EE011480F49091F0968C1F3D4
:1012A0008811A0FB01700146224600233846FFF753
:1012B0003BF805460848001F0068C0F30140401C89
:1012C0004600B5FBF6F902E0DFF8109000BF00BF62
:1012D0004846BDE8F0870000083802400024F400CA
:1012E00040787D01F8B504460CB90120F8BD20789E
:1012F00000F00100002874D0F948006800F00C00EC
:1013000004280DD0F648006800F00C00082813D11E
:10131000F348001F006800F48000B0F5800F0BD187
:10132000EF4808380068C0F34040002859D0606892
:10133000002856D10120D9E700BF6068B0F5803F92
:1013400008D1E7480838006840F48030E44908399B
:1013500008601EE06068B0F5A02F0DD1E0480838A5
:10136000006840F48020DE490839086008460068BB
:1013700040F4803008600CE0D9480838006820F458
:101380008030D749083908600846006820F480207A
:10139000086000BF606890B1FFF728FD054606E0D1
:1013A000FFF724FD401B642801D903209EE7CC48A9
:1013B00008380068C0F340400028F1D011E0FFF782
:1013C00015FD054606E0FFF711FD401B642801D915
:1013D00003208BE7C24808380068C0F3404000286B
:1013E000F1D1207800F0020002285FD1BC480068EB
:1013F00000F00C0058B1BA48006800F00C00082852
:101400001CD1B748001F006800F48000B0B9B44890
:1014100008380068C0F3400020B1E068012801D01E
:10142000012063E7AE480838006820F0F800216921
:1014300040EAC100AA490839086037E0E06800B313
:101440000120A8490860FFF7D1FC054606E0FFF738
:10145000CDFC401B022801D9032047E7A0480838EB
:101460000068C0F340000028F1D09D4808380068AB
:1014700020F0F800216940EAC10099490839086064
:1014800014E0002097490860FFF7B0FC054606E02D
:10149000FFF7ACFC401B022801D9032026E7904847
:1014A00008380068C0F340000028F1D1207800F02F
:1014B000080008282CD16069A8B101208A49086079
:1014C000FFF794FC054606E0FFF790FC401B02285E
:1014D00001D903200AE782486C300068C0F340005D
:1014E0000028F1D014E000207F490860FFF77EFC5F
:1014F000054606E0FFF77AFC401B022801D90320CD
:10150000F4E677486C300068C0F340000028F1D161
:10151000207800F00400042870D10027704838308B
:10152000006800F0805090B900BF002000906C4827
:101530003830006840F0805069493831086008460A
:10154000006800F08050009000BF00BF012767488E
:10155000006800F48070B0B96448006840F480709E
:1015600062490860FFF742FC054606E0FFF73EFCD3
:10157000401B022801D90320B8E65C48006800F44B
:1015800080700028F2D000BFA068012808D154481C
:101590006830006840F001005149683108601DE082
:1015A000A06805280DD14E486830006840F004005E
:1015B0004B49683108600846006840F00100086047
:1015C0000CE047486830006820F001004449683169
:1015D00008600846006820F00400086000BFA068AA
:1015E000A8B1FFF703FC054609E0FFF7FFFB401B2E
:1015F00041F28831884202D9032077E626E0384854
:1016000068300068C0F340000028EED013E0FFF718
:10161000EDFB054608E0FFF7E9FB401B41F288318E
:10162000884201D9032061E62D4868300068C0F384
:1016300040000028EFD1012F07D129483830006839
:1016400020F0805026493831086000BFA06900288A
:1016500045D02348006800F00C0008285DD0A06940
:10166000022845D100201F490866FFF7BFFB054649
:1016700006E0FFF7BBFB401B022801D9032035E63B
:10168000174808380068C0F340600028F1D1D4E959
:1016900007010843616A40EA81110122A06AC2EB96
:1016A000500041EA00412C20005D41EA00600C49F5
:1016B000091F086001200B490866FFF797FB0546E4
:1016C00006E0FFF793FB401B022801D903200DE63B
:1016D000034808380068C0F340600028F1D049E0B2
:1016E0000838024000004742800E47420070004028
:1016F000002021490866FFF779FB054606E0FFF761
:1017000075FB401B022801D90320EFE51B48006848
:10171000C0F340600028F2D12CE0A069012800D17C
:10172000E4E51648001D0668A069012820D006F4EB
:101730008001E06981421BD106F03F01206A8142AD
:1017400016D147F6C0703040616AB0EB811F0FD1EF
:1017500006F440310122A06AC2EB5000B1EB004F09
:1017600006D106F070612C20005DB1EB006F01D056
:101770000120BBE50020B9E50000474200380240E7
:101780007047704730B502460B4600BF92F83C00E8
:10179000012801D1022030BD012082F83C0000BFA9
:1017A000022082F83D00106844681068816824F0C7
:1017B00070041868044310684460184D1068A8420B
:1017C0001BD01068B0F1804F17D0154D1068A8429B
:1017D00013D0144D1068A8420FD0134D1068A842C2
:1017E0000BD0124D1068A84207D0114D1068A842C6
:1017F00003D0104D1068A84205D121F0800158682F
:10180000014310688160012082F83D0000BF002084
:1018100082F83C0000BF00BFBDE7000000000140AF
:101820000004004000080040000C0040000401409B
:10183000004001400018004010B504460CB90120DA
:1018400010BD94F83D0028B9002084F83C002046E3
:1018500000F026F8022084F83D00211D206801F0E8
:1018600073F9012084F8460000BF84F83E0001218E
:101870003F200155402001554120015500BF00BFC8
:10188000012084F8420043200155442001554520A1
:10189000015500BF012084F83D000020D0E7000082
:1018A00008B5144A016891420FD100BF0021009190
:1018B0001149096841F002010F4A11601146096897
:1018C00001F00201009100BF13E00C4A016891424F
:1018D0000FD100BF002100910749096841F00801BC
:1018E000054A11601146096801F00801009100BF26
:1018F00000BF08BD0004004040380240000C00401A
:10190000014691F83D00012801D0012070470220D6
:1019100081F83D000868C06840F001000B68D8609D
:101920001A4B086898421BD00868B0F1804F17D056
:10193000174B0868984213D0164B086898420FD08E
:10194000154B086898420BD0144B0868984207D092
:10195000134B0868984203D0124B086898420CD188
:101960000868806800F00702062A0CD00868006842
:1019700040F001000B68186005E00868006840F05E
:1019800001000B6818600020C0E700000000014063
:101990000004004000080040000C0040000401402A
:1019A00000400140001800402DE9F04104460D467A
:1019B000002700BF94F83C00012802D10220BDE8B6
:1019C000F081012084F83C0000BF022084F83D0033
:1019D0002068866826F0770626F47F4620688660B1
:1019E0002868502833D00CDC202850D004DC002894
:1019F0004BD0102851D149E0302849D040284CD153
:101A000039E060282DD0702807D0B0F5805F03D072
:101A1000B0F5005F41D10DE041E0D5E902136A68FD
:101A2000206801F012F92068866846F07706206881
:101A3000866034E0D5E902136A68206801F005F990
:101A40002068806840F480402168886027E0EA6868
:101A50006968206801F0EAF95021206801F000F976
:101A60001DE0EA686968206801F0F3F960212068E8
:101A700001F0F6F813E0EA686968206801F0D6F929
:101A80004021206801F0ECF809E000BF00BF00BF72
:101A90002968206801F0E4F801E0012700BF00BFD9
:101AA000012084F83D0000BF002084F83C0000BF06
:101AB000384684E7704770B504462068C5682068DA
:101AC000066906F00200022819D105F0020002287A
:101AD00015D1401F216808610120207720688069A6
:101AE00000F0030018B12046FFF7E4FF05E02046B0
:101AF00000F00AF9204600F0BEF90020207706F039
:101B00000400042819D105F00400042815D1C043AD
:101B100021680861022020772068806900F4407005
:101B200018B12046FFF7C6FF05E0204600F0ECF8AC
:101B3000204600F0A0F90020207706F008000828D1
:101B400019D105F00800082815D1C04321680861A3
:101B5000042020772068C06900F0030018B12046F7
:101B6000FFF7A8FF05E0204600F0CEF8204600F081
:101B700082F90020207706F01000102819D105F016
:101B80001000102815D1C043216808610820207773
:101B90002068C06900F4407018B12046FFF78AFF42
:101BA00005E0204600F0B0F8204600F064F900207F
:101BB000207706F0010048B105F0010030B16FF068
:101BC000010021680861204600F030FA06F080002C
:101BD000802809D105F08000802805D1C043216804
:101BE00008612046FFF7CCFD06F04000402809D1EF
:101BF00005F04000402805D1C04321680861204617
:101C000000F020FA06F02000202809D105F020007D
:101C1000202805D1C043216808612046FFF7B1FDA7
:101C200070BD000010B586B00446142101A8FEF76F
:101C300061FC30492068884239D100BF0020009003
:101C40002D48006840F001002B49086008460068F4
:101C500000F00100009000BF00BF00BF0020009016
:101C60000846006840F0020008600846006800F07E
:101C70000200009000BF00BFC0200190022002902F
:101C80000020039004900220059001A91B48FEF754
:101C9000ADFF0320019002200290002003900490E9
:101CA0000220059001A91648FEF7A0FF20E0154983
:101CB000206888421CD100BF002000900E480068B8
:101CC00040F001000C4908600846006800F001007F
:101CD000009000BF00BF0F20019002200290002062
:101CE000039004900220059001A90448FEF77EFFAE
:101CF00006B010BD00040040303802400000024031
:101D000000040240000C004070472DE9F0410446F9
:101D10000D461646002700BF94F83C00012802D16A
:101D20000220BDE8F081012084F83C0000BF36B1FC
:101D3000042E1BD0082E31D00C2E5ED145E0294652
:101D4000206800F097FF2068806940F00800216853
:101D500088612068806920F004002168886120681B
:101D60008069296908432168886148E0294620681C
:101D700000F0B8FF2068806940F400602168886145
:101D80002068806920F4806021688861206880690B
:101D9000296940EA01202168886130E029462068ED
:101DA00000F0DEFF2068C06940F008002168C861CB
:101DB0002068C06920F004002168C8612068C069FB
:101DC000296908432168C86119E02946206801F0A3
:101DD00003F82068C06940F400602168C861206889
:101DE000C06920F480602168C8612068C0692969E1
:101DF00040EA01202168C86101E0012700BF00BF5F
:101E000000BF002084F83C0000BF384689E710B5C9
:101E100004460CB9012010BD94F83D0028B90020FB
:101E200084F83C00204600F025F8022084F83D00AC
:101E3000211D206800F088FE012084F8460000BFC4
:101E400084F83E0001213F200155402001554120EA
:101E5000015500BF00BF012084F842004320015516
:101E6000442001554520015500BF012084F83D0064
:101E70000020D0E77047704770B504460D4615B98D
:101E800094F83E000BE0042D02D13F20005D06E0F7
:101E9000082D02D14020005D01E04120005D0128B5
:101EA00001D0012070BD1DB9022084F83E000EE073
:101EB000042D03D102213F20015508E0082D03D154
:101EC00002214020015502E002214120015501225A
:101ED0002946206800F0A8FE23492068884203D0E4
:101EE00022492068884201D1012000E0002028B169
:101EF0002068406C40F40040216848641A4920681A
:101F000088421BD02068B0F1804F17D01849206854
:101F1000884213D01749206888420FD0164920689C
:101F200088420BD011492068884207D013492068A5
:101F3000884203D01249206888420CD1206880680A
:101F400000F00706062E0CD02068006840F0010063
:101F50002168086005E02068006840F00100216801
:101F6000086000209EE700000000014000040140DE
:101F70000004004000080040000C00400040014008
:101F80000018004030B504460D460022294620685E
:101F900000F04AFE23492068884203D02249206885
:101FA000884201D1012000E0002090B100BF2068EC
:101FB000006A41F21111084050B92068006A891086
:101FC000084028B92068406C20F40040216848642B
:101FD00000BF00BF2068006A41F21111084050B9EB
:101FE0002068006A8910084028B92068006820F03D
:101FF00001002168086000BF1DB9012084F83E007F
:102000000EE0042D03D101213F20015508E0082DE9
:1020100003D101214020015502E001214120015559
:10202000002030BD000001400004014010B504460E
:1020300003492068884201D1FEF7DEFE10BD000092
:102040000020004070477047704700002DE9F84FAE
:102050000446206805682068C668206847694FF014
:102060000009CA4605F00F09B9F1000F0AD105F0C1
:10207000200038B106F0200020B1204600F0F3FF28
:10208000BDE8F88FB9F1000F7CD007F0010018B956
:1020900006F49070002875D005F0010030B106F408
:1020A000807018B1606C40F00100606405F00400BD
:1020B00030B107F0010018B1606C40F002006064BC
:1020C00005F0020030B107F0010018B1606C40F07B
:1020D0000400606405F0080048B106F0200010B963
:1020E00007F0010018B1606C40F008006064606C9B
:1020F000002846D005F0200028B106F0200010B1DD
:10210000204600F0B0FF20684069C0F3801A606C80
:1021100000F0080010B9BAF1000F2DD0204600F0F1
:1021200049FF2068406900F04000402820D100BFEE
:1021300000BF2168143151E8001F21F040002168E0
:10214000143141E80002002AF3D100BFE06B50B126
:102150007F48E16B0865E06BFEF753FB88B1E06BED
:10216000016D88470DE02046FFF76EFF09E009E0AA
:102170002046FFF769FF04E02046FFF765FF0020D7
:1021800060647DE7206B012878D105F010000028FD
:1021900074D006F010000028FAD000BF0020009094
:1021A00020680068009020684068009000BF00BF71
:1021B0002068406900F04000402870D1E06B006862
:1021C00040681FFA80F8B8F1000F58D0A08D404544
:1021D00055DDA4F82E80E06BC069B0F5807F43D058
:1021E00000BF00BF21680C3151E8001F21F480704E
:1021F00021680C3141E80002002AF3D100BF00BF82
:1022000000BF2168143151E8001F21F0010021684E
:10221000143141E80002002AF3D100BF00BF00BF23
:102220002168143151E8001F21F040002168143169
:1022300041E80002002AF3D100BF202084F84200C8
:102240000020206300BF00BF21680C3151E8001F4F
:1022500021F0100021680C3141E80002002AF3D17E
:1022600000BFE06BFEF777FA02206063A08DE28D7D
:10227000801A81B22046FFF7E6FE0EE052E0A08D04
:1022800040450AD1E06BC069B0F5807F05D10220DE
:102290006063A18D2046FFF7D6FEF1E6FFE7A08D33
:1022A000E18D401A1FFA80F8E08DD0B3B8F1000F2D
:1022B00037D000BF00BF21680C3151E8001F21F466
:1022C000907021680C3141E80002002AF3D100BF70
:1022D00000BF00BF2168143151E8001F21F0010048
:1022E0002168143141E80002002AF3D100BF202008
:1022F00084F842000020206300BF00BF21680C3139
:1023000051E8001F21F0100021680C3141E8000263
:10231000002AF3D100BF0220606341462046FFF748
:1023200092FEADE605F0800030B106F0800018B1F5
:10233000204601F099F8A3E605F0400030B106F020
:10234000400018B1204600F06BFE99E600BF97E60A
:102350007B2E000810B504460CB9012010BDA06901
:1023600000B100E000BF94F8410028B9002084F8D3
:102370004000204600F02AF8242084F8410020681C
:10238000C06820F400502168C860204600F0EAFED2
:102390002068006920F49040216808612068406945
:1023A00020F02A00216848612068C06840F400508D
:1023B0002168C86000206064202084F8410084F80F
:1023C00042000020606300BFC8E7000010B586B07F
:1023D0000446142101A8FEF78DF840492068884280
:1023E0007AD100BF002000903D48006840F0100006
:1023F0003B4908600846006800F01000009000BFEC
:1024000000BF00BF0020009035481438006840F03D
:1024100001003349143908600846006800F00100E3
:10242000009000BF00BF4FF4C060019002200290F6
:1024300000200390032004900720059001A929485B
:10244000FEF7D4FB2848294908604FF00060486037
:10245000002126488160C1604FF480610161002144
:10246000416181614FF48071C1610021016241626B
:10247000FEF7FCFA08B1FEF76BF900BF1B48E063FA
:10248000846300BF18487830194908604FF0006035
:1024900048604021164881600021C1604FF480618E
:1024A00001610021416181614FF48071C1610021AE
:1024B00001624162FEF7DAFA08B1FEF749F900BF9E
:1024C0000B48A063846300BF002205212520FEF78E
:1024D00055FD2520FEF73EFD06B010BD0010014061
:1024E000443802400000024040640240C001002025
:1024F0002002002070B504460D46164694F84200AE
:1025000020280BD105B10EB9012070BD0020206339
:1025100032462946204600F03BFFF6E70220F4E76A
:1025200070470000034A0168914202D10121024A2A
:10253000117070470010014016000020704700BF66
:10254000FEE7000008B500BF002000900E480068BC
:1025500040F480000C4908600846006800F48000E0
:10256000009000BF00BF002205213A20FEF706FDC3
:102570003A20FEF7EFFC002205214620FEF7FEFC84
:102580004620FEF7E7FC08BD3038024010B50B4A84
:1025900000210B4801F0C4F80A4908600A4A0021EA
:1025A0000A4801F0BDF80A4908600A4A00210A48B1
:1025B00001F0B6F80949086010BD0000FC5600089B
:1025C000212A00080800002020570008793500085B
:1025D0000C00002044570008D543000810000020DC
:1025E00000B587B0142102A8FDF784FF00BF0020CA
:1025F00001902B48006840F0010029490860084616
:10260000006800F00100019000BF00BF00BF002083
:1026100001900846006840F0040008600846006821
:1026200000F00400019000BF00BF00BF0020019037
:102630000846006840F0020008600846006800F0A4
:102640000200019000BF00BF002220211548FEF7C4
:10265000C7FB002230211448FEF7C2FB1020029075
:10266000002003900120049002A90E48FEF7BEFA54
:10267000202002900120039004900320059002A9DD
:102680000848FEF7B3FA302002900120039004902E
:102690000320059002A90448FEF7A8FA07B000BD80
:1026A00030380240000002400008024000B58DB002
:1026B000002009900A900B900C90079008901C2124
:1026C0006846FDF717FF2C482C4908600020486039
:1026D00000212A48816041F61F41C160002101614B
:1026E0008161FFF7A9F808B1FEF732F84FF4805086
:1026F000099009A92148FFF757F908B1FEF728F812
:102700001E48FFF784FB08B1FEF722F8302007903F
:102710000020089007A91948FFF734F808B1FEF720
:1027200017F8602000900020019002900490002291
:1027300069461248FFF7E9FA08B1FEF709F80422E2
:1027400069460E48FFF7E1FA08B1FEF701F80822E2
:1027500069460A48FFF7D9FA08B1FDF7F9FF0C22DC
:1027600069460648FFF7D1FA08B1FDF7F1FF0348C3
:10277000FFF758FA0DB000BD00040040A80000208B
:1027800000B58DB0002009900A900B900C90079036
:1027900008901C216846FDF7ADFE2C482C490860C6
:1027A0000020486000212A48816041F61F41C16035
:1027B000002101618161FFF73FF808B1FDF7C8FF13
:1027C0004FF48050099009A92148FFF7EDF808B1AE
:1027D000FDF7BEFF1E48FFF71AFB08B1FDF7B8FF73
:1027E000302007900020089007A91948FEF7CAFF7B
:1027F00008B1FDF7ADFF602000900020019002902D
:102800000490002269461248FFF77FFA08B1FDF7ED
:102810009FFF042269460E48FFF777FA08B1FDF7DB
:1028200097FF082269460A48FFF76FFA08B1FDF7DB
:102830008FFF0C2269460648FFF767FA08B1FDF7DB
:1028400087FF0348FFF7EEF90DB000BD000C004014
:10285000F000002010B51148114908604FF4E13034
:10286000486000210E488160C16001610C21416116
:1028700000218161C161FFF76DFD08B1FDF768FFBF
:1028800008480068006840F00800064909680860C8
:10289000402205490248FFF72DFE10BD00100140FF
:1028A00078010020C00100203801002000BFFEE7B1
:1028B00033B59DF80300803800EE100AB8EEC00A68
:1028C000254880ED000A9DF804007F3800EE100ACC
:1028D000B8EEC00A204880ED010A9DF80500803856
:1028E00000EE100AB8EEC00A1B4880ED020A1B4831
:1028F000194991ED021AD1ED010A91ED000A00F09B
:1029000049FE16480C3000F009FEBDEEC00A10EE7C
:10291000104A124800F002FEBDEEC00A10EE105A36
:10292000224629460E4800F033F80C48243000F0C7
:10293000F5FDBDEEC00A10EE104A0848183000F050
:10294000EDFDBDEEC00A10EE105A2246294605489C
:1029500000F01EF83CBD0000CC4B00209C4B00203A
:10296000A8000020F000002010B5064800F070F824
:10297000054800F06DF8034800F057F8024800F0F1
:1029800054F810BDA8000020F000002000BFFEE7B2
:1029900010B5B1F5E15F02DD4FF4E15300E00B4605
:1029A000194611F5E15F01DA1C4B00E00B461946B0
:1029B000B2F5E15F02DD4FF4E15300E013461A4641
:1029C00012F5E15F01DA154B00E013461A460029C3
:1029D00008DD4FF4E15304686363C1F5E153046813
:1029E000A36307E001F5E153046863634FF4E15327
:1029F0000468A363002A08DD4FF4E1530468E3632D
:102A0000C2F5E1530468236407E002F5E15304686A
:102A1000E3634FF4E1530468236410BDE0E3FFFF78
:102A200000BF012000F026FEFBE710B504460021A0
:102A30002046FFF721FA04212046FFF71DFA08215E
:102A40002046FFF719FA0C212046FFF715FA10BDB2
:102A500010B5044600212046FFF794FA04212046D1
:102A6000FFF790FA08212046FFF78CFA0C21204648
:102A7000FFF788FA10BD10B54FF0E020006902F0B2
:102A8000E1FB012801D002F02BF810BD00B593B096
:102A9000302107A8FDF72EFD142102A8FDF72AFD1D
:102AA00000BF002001901D48006840F080501B4985
:102AB00008600846006800F08050019000BF00BF29
:102AC00000BF002001901648006840F4804014497F
:102AD00008600846006800F48040019000BF00BF15
:102AE0000220079001200A9010200B9000200D90EA
:102AF00007A8FEF7F7FB08B1FDF72AFE0F200290AA
:102B000000200390049005900690002102A8FEF793
:102B100087FA08B1FDF71CFE13B000BD4038024033
:102B2000007000400348006840F4700001490860EC
:102B30007047000088ED00E010B50248FEF7BBFFCB
:102B400010BD00008002002010B502682B4B984297
:102B50000ED0B0F1804F0BD0294B984208D0294BB2
:102B6000984205D0284B984202D0284B984203D176
:102B700022F070024B681A43204B984220D0B0F1EB
:102B8000804F1DD01E4B98421AD01E4B984217D032
:102B90001D4B984214D01D4B984211D01C4B9842AB
:102BA0000ED01C4B98420BD01B4B984208D01B4BAD
:102BB000984205D01A4B984202D01A4B984203D142
:102BC00022F44072CB681A4322F080034C6943EA36
:102BD00004028B68C3620B688362084B984202D080
:102BE0000A4B984201D10B690363036843F0040365
:102BF000036001234361026010BD0000000001403A
:102C00000004004000080040000C004000040140A7
:102C100000400140004401400048014000180040CD
:102C2000001C00400020004030B501F01F050124C9
:102C300004FA05F3046A9C430462046A01F01F0568
:102C400002FA05F52C43046230BD30B50C468168AC
:102C500021F47F4142EA032525432943816030BDA9
:102C60000A46816821F0700142F007031943816030
:102C70007047000030B5026A056A25F0010505625B
:102C80004368846924F0700424F003040D682C4325
:102C900022F002028D682A43104DA84200D103E0C1
:102CA0000F4DA84206D100BF22F00802CD682A438A
:102CB00022F00402094DA84202D0094DA84207D1D2
:102CC00023F4807323F400734D692B438D692B43E8
:102CD000436084614D684563026230BD000001407D
:102CE0000004014030B5026A056A25F0100505624E
:102CF0004368846924F4E04424F440740D6844EA91
:102D0000052422F020028D6842EA0512124DA842E5
:102D100000D103E0114DA84207D100BF22F080028C
:102D2000CD6842EA051222F040020B4DA84202D0C3
:102D30000A4DA84209D123F4806323F400634D694E
:102D400043EA85038D6943EA8503436084614D68E6
:102D50008563026230BD00000000014000040140B4
:102D600030B5026A056A25F4807505624368C46956
:102D700024F0700424F003040D682C4322F4007244
:102D80008D6842EA0522124DA84200D103E0114DA0
:102D9000A84207D100BF22F40062CD6842EA0522B2
:102DA00022F480620A4DA84202D00A4DA84209D1FD
:102DB00023F4805323F400534D6943EA05138D69CE
:102DC00043EA05134360C4614D68C563026230BDC8
:102DD000000001400004014030B5036A056A25F493
:102DE000805505624468C26922F4E04222F44072D0
:102DF0000D6842EA052223F400538D6843EA053347
:102E0000084DA84202D0084DA84204D124F48044C1
:102E10004D6944EA85144460C2614D6805640362EB
:102E200030BD0000000001400004014030B50B46F9
:102E30001446026A056A25F001050562816921F0E0
:102E4000F00141EA041122F00A021A438161026290
:102E500030BD30B50B461446026A056A25F01005F0
:102E60000562816921F4704141EA043122F0A00237
:102E700042EA03128161026230BD70B50446A56B5F
:102E80000020E8852846FFF7DFF870BD70B50646DC
:102E90000025B46B20684069C0F3C01594F8410068
:102EA000212805D125B10020E084204600F0C8F893
:102EB00020684069C0F3801594F84200222805D1AB
:102EC00025B10020E085204600F074F8606C40F0E9
:102ED000100060642046FFF7B7F870BD70B5054676
:102EE000AC6B2868006800F48070002842D1E0854F
:102EF00000BF00BF21680C3151E8001F21F4807031
:102F000021680C3141E80002002AF3D100BF00BF64
:102F100000BF2168143151E8001F21F00100216831
:102F2000143141E80002002AF3D100BF00BF00BF06
:102F30002168143151E8001F21F04000216814314C
:102F400041E80002002AF3D100BF202084F84200AB
:102F5000206B01280ED100BF00BF21680C3151E861
:102F6000001F21F0100021680C3141E80002002A06
:102F7000F3D100BF00206063206B012804D1A18D34
:102F80002046FFF760F802E02046FFF7C9FA70BD5F
:102F900070B50546AC6B01206063206B012805D13C
:102FA000A08D41082046FFF74EF802E02046FFF7CB
:102FB000B9FA70BD00BF00BF02680C3252E8002FA2
:102FC00022F4907102680C3242E80013002BF3D116
:102FD00000BF00BF00BF0268143252E8002F22F089
:102FE00001010268143242E80013002BF3D100BF44
:102FF000016B01290ED100BF00BF02680C3252E8FC
:10300000002F22F0100102680C3242E80013002B5E
:10301000F3D100BF202180F84210002101637047E6
:1030200010B504462068C06820F040002168C860E0
:10303000202084F841002046FFF780FA002010BDD0
:1030400000BF00BF02680C3252E8002F22F0C0011E
:1030500002680C3242E80013002BF3D100BF20219C
:1030600080F841107047F8B504460025002694F812
:103070004200222873D1A068B0F5805F0BD120698F
:1030800048B9A66A20684068C0F308003080A06A8A
:10309000801CA06214E0A56AA068B0F5805F03D030
:1030A000A06828B9206918B920684068287004E031
:1030B0002068406800F07F002870A06A401CA06271
:1030C000E08D401E80B2E085002846D12068C068AF
:1030D00020F020002168C8602068C06820F480705B
:1030E0002168C8602068406920F0010021684861BB
:1030F000202084F8420000206063206B012826D144
:103100000020206300BF00BF21680C3151E8001F80
:1031100021F0100021680C3141E80002002AF3D1AF
:1031200000BF2068006800F0100010280AD100BF1E
:10313000002000902068006800902068406800909F
:1031400000BF00BFA18D2046FEF77DFF02E02046B4
:10315000FFF7E6F90020F8BD01E00020FBE70220C0
:10316000F9E700002DE9F84F04462068006920F4D3
:103170004050E1680843216808612169A06808435C
:1031800061690843E169084300902068C06849F21A
:103190000C618843009908432168C8602068406931
:1031A00020F44070A169084321684861764920688D
:1031B000884203D075492068884203D1FEF72AF877
:1031C000814602E0FEF716F88146E069B0F5004F4F
:1031D0006CD102206168A0FB015003461920A9FBB5
:1031E000007001462A463846FDF79EF86421B0FB80
:1031F000F1F04FEA001A02206168A0FB01510B4672
:103200001920A9FB00712A463846FDF78DF8834640
:1032100002206168A0FB015003461920A9FB007140
:103220002A463846FDF780F86421B0FBF1F000EB48
:10323000C00101EB0010ABEB8000322101EBC000BC
:103240006421B0FBF1F000F0F8000AEB400A022024
:103250006168A0FB015003461920A9FB00700146DC
:103260002A463846FDF760F8834602206168A0FBD5
:10327000015003461920A9FB00712A463846FDF784
:1032800053F86421B0FBF1F000EBC00101EB00103A
:10329000ABEB8000322101EBC0006421B0FBF1F008
:1032A00000F007005044216888606AE004206168EB
:1032B000A0FB015003461920A9FB007001462A46D5
:1032C0003846FDF731F8824604206168A0FB0150C2
:1032D00003461920A9FB007001462A463846FDF72F
:1032E00023F86421B0FBF1F000EBC00101EB00100A
:1032F000AAEB8000322101EB00106421B0FBF1F059
:1033000000F0F00A04206168A0FB01700346192058
:10331000A9FB00513A462846FDF706F86421B0FBA8
:10332000F1F00AEB001A04206168A0FB01510B4682
:103330001920A9FB00712A463846FCF7F5FF8346A1
:1033400004206168A0FB015003461920A9FB00700E
:1033500001462A463846FCF7E7FF6421B0FBF1F04E
:1033600000EBC00101EB0010ABEB8000322101EB60
:1033700000106421B0FBF1F000F00F005044216810
:103380008860BDE8F88F0000001001400014014083
:1033900077B581B0044615460298A062A585002045
:1033A0006064222084F842002C48E16BC8632C48FA
:1033B000E16B08642B48E16BC8640020E16B086591
:1033C00002AE32682368191D2B46E06BFDF7C4FB83
:1033D00038B110206064202084F84200012004B03D
:1033E00070BD00BF00200090206800680090206839
:1033F0004068009000BF00BF206970B100BF00BFEF
:1034000021680C3151E8001F41F4807021680C31B3
:1034100041E80002002AF3D100BF00BF00BF2168CD
:10342000143151E8001F41F001002168143141E8D6
:103430000002002AF3D100BF00BF00BF2168143191
:1034400051E8001F41F040002168143141E80002BA
:10345000002AF3D100BF0020C1E70000DD2E0008E4
:10346000912F00088D2E0008014691F84100212877
:1034700028D18868B0F5805F0BD1086948B90A6A1D
:103480001088C0F308000B685860086A801C086246
:1034900005E00B6A581C086218780B685860C88CE5
:1034A000401E80B2C88458B90868C06820F0800007
:1034B0000B68D8600868C06840F040000B68D860AE
:1034C000002070470220FCE710B50248FEF7BEFD61
:1034D00010BD00007801002000BFFEE70248006830
:1034E000C0F30220704700000CED00E010B500288A
:1034F00004DB0A07130E054A135406E00A07140EEC
:10350000034A00F00F031B1FD45410BD00E400E079
:1035100018ED00E0EFF305807047000090ED000A21
:10352000DFED070A20EE200AD0ED020A9FED051A12
:1035300000EE810A80ED000A90ED000A704700005D
:103540006666663FCDCCCC3DFDF762FCFFF79EFA88
:10355000FFF746F8FEF7F6FFFFF7A8F8FFF710F9B8
:10356000FFF778F9FFF700FA00F094F8FFF70EF88C
:1035700000F0A6F800BFFEE71CB500BF044903C970
:10358000CDE90001FFF794F9012000F073F8F5E7A9
:103590000000002001B52DED040B9DED000ADFEDCC
:1035A000320A20EE200ADDED010AB6EE001A00EE26
:1035B000C10ADDED020A9FED2D1A00EEC10A2C4969
:1035C000D1ED020A80EE201A80ED021A9DED000A6C
:1035D000B1EE400ADFED240A20EE200ADDED010AFB
:1035E000B6EE001A00EEC10ADDED020A9FED1F1AC9
:1035F00000EEC10AD1ED020A80EE201A80ED051A14
:103600009DED000ADFED180A20EE200ADDED010A2B
:10361000B6EE001A00EE810ADDED020A9FED131AE4
:1036200000EEC10AD1ED020A80EE201A80ED081AE0
:103630009DED000AB1EE400ADFED0B0A20EE200AF4
:10364000DDED010AB6EE001A00EE810ADDED020A98
:103650009FED061A00EEC10AD1ED020A80EE201A93
:1036600080ED0B1A05B000BD2DB25D3F7B14AE3E60
:10367000A057000870B50546FFF74CFF10B16FF07A
:10368000050404E0002415B1284601F04DF8204659
:1036900070BD000010B5FFF73DFF10B16FF00504DD
:1036A00009E00648006820B90120044908600024A8
:1036B00001E04FF0FF34204610BD000078000020EC
:1036C00070B5FFF727FF10B16FF005041FE0114838
:1036D0000068012819D100BF801F0021002804DBE9
:1036E0000A07130E0C4A135406E00A07150E0B4A7C
:1036F00000F00F031B1FD55400BF00BF0220054977
:10370000086001F08DF8002401E04FF0FF342046FE
:1037100070BD00007800002000E400E018ED00E03B
:103720002DE9FF4780468946144600200390FFF7A5
:10373000F1FE00284ED1B8F1000F4BD0802618259D
:103740008246471E44B3206808B1D4F800A0A0699F
:1037500000B1A5692DB1382D03D8207900F0010002
:1037600018B1002004B0BDE8F087606908B1606955
:103770008608A06840B1E0685C2805D3206918B1CC
:10378000606908B1012708E0A06830B9E06820B995
:10379000206910B9002700E00027012F0CD1216912
:1037A000A0684B463246CDE9005102905146404652
:1037B00001F0EAFC03900DE067B903A8B2B24B46F2
:1037C0005146CDE90050404601F0ACFC012801D043
:1037D000002003900398C5E7F0B591B006460C466B
:1037E0004022314601A8FCF716FE002700BF09E081
:1037F000F05D0D2804D1781C305C0A2800D103E06C
:10380000781C87B2402FF3DD00BFB81C351828782C
:10381000207068786070A878A070E878E0702879E7
:10382000207168796071A879A071402101A8FCF726
:1038300061FE002011B0F0BD2DE9F04105460E46B5
:103840001648076816480068001D00F0E5FD681C72
:1038500038B936B112480168091D124800F032FE2D
:103860001AE07C190E4800684460BC4207D20C483C
:103870000168091D0C48006800F00AFE0CE00848C9
:103880000168091D0948006800F002FE0848006848
:10389000844201D206480460BDE8F0813C0000206B
:1038A00028000020B8070020300000202C00002055
:1038B0005800002010B5044600F010FE24480068AF
:1038C000401C234908602348006840B9214804602F
:1038D0000846006801280DD100F0FCF90AE01E48F6
:1038E000006838B91B480068C06AE16A884201D89C
:1038F0001848046019480068401C184908600846C8
:10390000006860641649E06A0968884202D914496F
:10391000E06A0860E16A01EB8101124A02EB810072
:10392000211D00F0CFFD00F003FE0B48006868B1D8
:1039300008480068C06AE16A884207D24FF08050A8
:1039400009490860BFF34F8FBFF36F8F10BD0000B0
:1039500038000020280000204400002054000020EF
:10396000400000200803002004ED00E008B500F04E
:10397000B5FD12480068E8B9114800F079FD11481A
:1039800000F076FD0E48104908600E480F490860A7
:1039900000200F4B0F4A102100900A2001F0BAF8C6
:1039A000064908600846006820B10BA1034800687A
:1039B00000F07EFE00F0BCFD08BD00006C000020A1
:1039C000CC070020E00700206400002068000020F1
:1039D000F407002044080020546D725100000000DC
:1039E00010B516E000F07AFD0C48C068C468201DD0
:1039F00000F012FD0A480068401E094908600948A5
:103A00000068401E0749086000F092FD204600F063
:103A10005FF8044800680028E4D110BDA407002026
:103A2000380000203400002070B504460D46206C9C
:103A300070B1216CE0680144E160D4E90210884271
:103A400001D32168E1602846226CE168FCF7E3FCC1
:103A500070BD2DE9F04104460F4615464FF00008B1
:103A6000A66B206C48B9206800282CD1A06801F012
:103A7000A1FC80460020A06025E07DB93946226C7B
:103A80006068FCF7C8FC216C606808446060D4E999
:103A90000101884217D32068606014E03946226C27
:103AA000E068FCF7B8FC216CE068411AE16021682D
:103AB000E068884203D2216CA068411AE160022DBF
:103AC00001D106B1761E701CA0634046BDE8F081AE
:103AD00010B5044694F8590030B9206B00F046FD4B
:103AE000204600F043FD1AE094F85900012803D164
:103AF000204600F03BFD12E094F85900022801D165
:103B0000012000E0002050B900BF502080F3118850
:103B1000BFF34F8FBFF36F8F00BF00BFFEE710BD35
:103B20000146084A126812680AB9012200E0002220
:103B30000A600A6822B9034A1268D268106800E075
:103B4000002070476400002030B54FF470531748D0
:103B500000F007042CB1C01D20F00700134C041B1B
:103B60001B1B0246124C22600024114D6C60D018C1
:103B7000083820F007000F4C206000240D4D2D6800
:103B80006C600C4D2D682C601146441A4C60094C39
:103B900024680C60084D4C682C60084D4C682C6003
:103BA0004FF00044064D2C6030BD00009C0F0020FB
:103BB0007C000020840000208C0000208800002071
:103BC0009800002000BFFFF70BFF0648006801289F
:103BD000F9D94FF0805004490860BFF34F8FBFF30D
:103BE0006F8FF0E70803002004ED00E02DE9F041BD
:103BF00006460D4617469846069C0DB9246000E01F
:103C00002760E66325640121204600F0F3FF84F875
:103C10004C80BDE8F0812DE9F05F82460E4690466B
:103C20009B460A9F0C9C4FEA8801A522206BFCF75B
:103C300037FCA8F10100216B01EB800929F007098D
:103C400009F0070008B9012000E0002050B900BFCA
:103C5000502080F31188BFF34F8FBFF36F8F00BFE9
:103C600000BFFEE786B1002507E0715D04F1340076
:103C70004155705D00B902E06D1C102DF5D300BFF9
:103C800000214320015502E0002084F83400382F41
:103C900000D33727E762E76400202065201D00F08D
:103CA000F4FB04F1180000F0F0FB2461C7F13800C8
:103CB000A06164620020606584F858005A4651464D
:103CC000484600F071FB20600B9808B10B98046027
:103CD000BDE8F09F10B5002407E004EB84010F4A13
:103CE00002EB810000F0C4FB641C382CF5D30C48B7
:103CF00000F0BEFB0B4800F0BBFB0B4800F0B8FB2C
:103D00000A4800F0B5FB0A4800F0B2FB0448094934
:103D1000086004480849086010BD0000080300203E
:103D2000680700207C07002090070020A4070020DF
:103D3000B80700202C0000203000002010B50146FC
:103D4000164800E0006803688B42FBD302464368D4
:103D500013448B4204D143684C68234443600146BA
:103D60000A464B6813440468A34211D10C4C036803
:103D70002468A34208D04B680468646823444B60FD
:103D800003681B680B6005E0054B1B680B6001E0D6
:103D900003680B60884200D0016010BD7C000020E9
:103DA000840000202DE9F04104460D4616461F46CA
:103DB0004FF0000865602461B5420CD8F01BA16982
:103DC000884202D34FF0010811E0211D0948006824
:103DD00000F05EFB0BE0BE4204D2BD4202D34FF0C6
:103DE000010804E0211D0448006800F051FB404632
:103DF000BDE8F081680000206400002070B5054631
:103E000000F06CFBA86B08B9012400E0002400F06E
:103E10008FFB204670BD70B5054600F05FFBA86BB8
:103E2000E96B884201D1012400E0002400F080FB0E
:103E3000204670BDF8B505460F461A480068C068B0
:103E4000C468201D00F0E8FA94F8280000F004008F
:103E5000E8B1A06941192B463A462046FFF7A2FF78
:103E6000D8B1002003462A4601460090204601F0C2
:103E7000FDFB064656B900BF502080F31188BFF302
:103E80004F8FBFF36F8F00BF00BFFEE705E094F8D0
:103E9000280020F0010084F828002046216A884785
:103EA000F8BD000064000020F0B587B0A0E00398E2
:103EB000002811DA04AE56B900BF502080F31188F3
:103EC000BFF34F8FBFF36F8F00BF00BFFEE7D6E990
:103ED0000020B168904700BF03980028E6DB059CEE
:103EE000606908B9012000E0002010B9201D00F031
:103EF00093FA02A800F0DEF8054603980A2875D266
:103F0000DFE800F009050739416306083A4200BFBF
:103F100000BF00BF00BF94F8280040F0010084F803
:103F200028000498A269811803462A462046FFF714
:103F300039FFF8B12046216A884794F8280000F03C
:103F40000400B8B1002000900498A1694218002331
:103F50001946204601F08AFB074657B900BF50209A
:103F600080F31188BFF34F8FBFF36F8F00BF00BF87
:103F7000FEE700BF3BE000BF94F8280020F00100FE
:103F800084F8280033E000BF94F8280040F00100D6
:103F900084F828000498A061A06908B1012000E01D
:103FA000002050B900BF502080F31188BFF34F8F1D
:103FB000BFF36F8F00BF00BFFEE7A06941192B461A
:103FC0002A462046FFF7EEFE11E094F8280000F0A4
:103FD000020018B9204600F0C9FA05E094F828005C
:103FE00020F0010084F8280001E0FFE700BF00BFD7
:103FF000002203A90448006800F09AFF00287FF41B
:1040000056AF07B0F0BD00006C000020F8B50546C3
:104010000C4600F061FC684600F04CF8064600983B
:1040200020BB44B9B54206D801F062FA31462846B1
:10403000FFF700FF1CE03CB10E480068006808B9BB
:10404000012000E000200446A91B22460A4800681F
:1040500000F044FB01F04CFA50B94FF08050074992
:104060000860BFF34F8FBFF36F8F01E001F040FA9C
:10407000F8BD0000680000206C00002004ED00E0A6
:104080000A490968096809B9012100E0002121B144
:104090004FF0FF31064A116006E004490968C9681B
:1040A000C868034A41681160704700002C00002076
:1040B0005800002070B5044601F0D4F805460748C2
:1040C0000068854204D200F00BF80120206001E076
:1040D0000020206001480560284670BD7400002063
:1040E0002DE9F84334E025480068C0680568234896
:1040F0000068C068C468201D00F08EF92046216A5F
:10410000884794F8280000F0040008B3A069461915
:10411000AE4207D966602461211D1848006800F08E
:10412000B7F915E0002003462A46014600902046D4
:1041300001F09CFA074657B900BF502080F3118860
:10414000BFF34F8FBFF36F8F00BF00BFFEE700BF0D
:104150000A480068006808B9012000E00020002833
:10416000C1D00648D0F800800548006803490860BF
:104170000348C0F80080BDE8F88300006400002018
:10418000680000200E480068401C08B9012000E0CB
:10419000002050B900BF502080F31188BFF34F8F2B
:1041A000BFF36F8F00BF00BFFEE700BF502080F35A
:1041B0001188BFF34F8FBFF36F8F00BF00BFFEE7C3
:1041C0009C00002008B500BF6846FFF7A9FC044624
:1041D00020460099FFF71AFFFFF766FEF4E770B577
:1041E000044600F07BF994F9455010E0606A08B984
:1041F000012000E0002038B904F1240001F02CF97E
:1042000018B100F0CBFA00E003E0681E45B2002DC3
:10421000ECDC00BFFF2084F8450000F089F900F0D5
:104220005DF994F9445010E0206908B9012000E0DC
:10423000002048B904F1100001F00EF908B100F0B7
:10424000ADFA681E45B200E001E0002DECDC00BFD5
:10425000FF2084F8440000F06BF970BD2DE9F041B7
:1042600004464FF0000800F037FB4948006808B9E1
:10427000FFF76AFC474800682040002870D1D4B19D
:10428000083404F00700B0B104F00700C0F10800E2
:10429000044404F0070008B9012000E0002050B9F0
:1042A00000BF502080F31188BFF34F8FBFF36F8F93
:1042B00000BF00BFFEE7002C52D0374800688442A0
:1042C0004ED8364E3046056801E02E462D686868A7
:1042D000A04202D228680028F7D12D480068854204
:1042E0003ED0306800F10808286830606868001B1C
:1042F000102819D92F1907F0070008B9012000E08C
:10430000002050B900BF502080F31188BFF34F8FB9
:10431000BFF36F8F00BF00BFFEE76868001B7860C7
:104320006C603846FFF70AFD1B4968680968081A7F
:10433000194908600846006819490968884203D28B
:1043400015480068164908601249686809680843FA
:1043500068600020286013480068401C114908600C
:1043600001F0C6F808F0070008B9012000E00020BD
:1043700050B900BF502080F31188BFF34F8FBFF3B7
:104380006F8F00BF00BFFEE74046BDE8F081000030
:104390008400002098000020880000207C0000207D
:1043A0008C00002090000020001F4FF080730360FD
:1043B000001F21F001030360001F054B0360143848
:1043C0000260001F6FF00203036020387047000096
:1043D0008541000800BF0C48007888B100200B49D7
:1043E0000B4A128888540B490848FFF7F5F9402119
:1043F0000648FCF75DF8002005490880024908706E
:104400000120FFF737F9E6E7160000203801002009
:10441000140000200000002001460A69D1E90130A3
:104420009860D1E9010358605068884201D18868DA
:104430005060002008611068401E106010687047CE
:10444000034B0360034B0B60802313607047000035
:10445000E408002040090020034B0360034B0B607D
:104460004FF4807313607047400B00209C0B0020BA
:1044700000F1080141604FF0FF31816000F1080157
:10448000C160016100210160704700210161704736
:1044900010B502460B685C1C0CB9106907E002F10C
:1044A000080000E04068446824689C42FAD94468E7
:1044B0004C604C68A160886041600A611468641CAB
:1044C000146010BD42684A6093688B6093685960BD
:1044D0009160086103685B1C0360704700BF502057
:1044E00080F31188BFF34F8FBFF36F8F00BF0E486B
:1044F0000068401C0C49086008460068012812D179
:104500000A480068C0B208B9012000E0002050B994
:1045100000BF502080F31188BFF34F8FBFF36F8F20
:1045200000BF00BFFEE770479C00002004ED00E0E4
:104530000D48006850B900BF502080F31188BFF3C8
:104540004F8FBFF36F8F00BF00BFFEE706480068C4
:10455000401E054908600846006820B9002080F325
:10456000118800BF00BF70479C00002070B5064650
:104570003546002E44D0083D2C4622496068096823
:10458000084008B1012000E0002050B900BF5020D1
:1045900080F31188BFF34F8FBFF36F8F00BF00BF51
:1045A000FEE7206808B9012000E0002050B900BFF4
:1045B000502080F31188BFF34F8FBFF36F8F00BF80
:1045C00000BFFEE70F49606809680840C0B1206875
:1045D000B0B90C49606809688843606000F07CF9F4
:1045E0000949606809680844074908602046FFF7E0
:1045F000A5FB06480068401C0449086000F078FFED
:1046000070BD000098000020880000209400002069
:1046100000204FF0E02108618861064800684FF4EF
:104620007A71B0FBF1F0401E4FF0E02148610720A5
:10463000086170472400002070B5FBF751FE044666
:10464000102C16D304F1E02090F8F05315480078B0
:10465000854201DB012000E0002050B900BF50205E
:1046600080F31188BFF34F8FBFF36F8F00BF00BF80
:10467000FEE70D48006800F4E0600C4909688842D4
:1046800001D8012000E0002050B900BF502080F385
:104690001188BFF34F8FBFF36F8F00BF00BFFEE7DE
:1046A00070BD0000A00000200CED00E0A400002080
:1046B000024600200BE0084B53F8303033B9064B6C
:1046C00043F8301003EBC0035A6002E0401C082896
:1046D000F1D300BF70470000C80200202DE9F0416F
:1046E00005460E4617462C46FFF7F8FE94F944009F
:1046F000401C10B9002084F8440094F94500401C87
:1047000010B9002084F84500FFF712FFA06B28B90C
:104710003A46314604F1240000F062F82046FFF7E3
:104720005EFDBDE8F081000070B504460025D4B1FF
:104730001248006808B9012000E0002050B900BF0D
:10474000502080F31188BFF34F8FBFF36F8F00BFEE
:1047500000BFFEE700F0C0F800212046FFF76CF82C
:1047600000F0C6FE05463DB94FF080500449086090
:10477000BFF34F8FBFF36F8F70BD0000600000204C
:1047800004ED00E0034909680160034909684160DC
:1047900070470000500000203C000020012001492B
:1047A000086070474C00002070B504460D4654B9AF
:1047B00000BF502080F31188BFF34F8FBFF36F8F7E
:1047C00000BF00BFFEE70548016818312046FFF72B
:1047D0005FFE01212846FFF72FF870BD280000205A
:1047E00070B505460E46144655B900BF502080F3FB
:1047F0001188BFF34F8FBFF36F8F00BF00BFFEE77D
:104800000648016818312846FFF75CFE0CB14FF0EE
:10481000FF3621463046FFF70FF870BD2800002014
:1048200010B586B000200590049003AA04A905A83D
:10483000FFF706FE0022DDE904101346CDE9002152
:1048400002901EA11F48039A00F09EFC1E490860BA
:104850000846006808B1012400E00024012C02D1C0
:1048600000F0C8FE0446012C15D100BF502080F393
:104870001188BFF34F8FBFF36F8F00BF4FF0FF3032
:10488000124908600120124908600020114908609F
:1048900000F072F810E0601C08B1012000E0002078
:1048A00050B900BF502080F31188BFF34F8FBFF382
:1048B0006F8F00BF00BFFEE706B010BD49444C45F6
:1048C00000000000C53B00085C00002058000020EC
:1048D000440000203C00002002480068401C0149C0
:1048E00008607047600000201E48006818B1012071
:1048F0001D49086034E000201B4908601B4801681E
:104900000CE051B900BF502080F31188BFF34F8FE6
:10491000BFF36F8F00BF00BFFEE7491E01EB8100B0
:10492000134A52F8200008B9012000E000200028B6
:10493000E7D101EB81020E4B03EB82004268526823
:10494000426000F108024368934202D14268526813
:1049500042604268D268074B1A600448016000BF99
:1049600070470000600000204C0000204000002044
:1049700008030020280000201CB552480068524956
:10498000884201D0012000E0002050B900BF502033
:1049900080F31188BFF34F8FBFF36F8F00BF00BF4D
:1049A000FEE7484800684849491E884201D0012076
:1049B00000E0002050B900BF502080F31188BFF301
:1049C0004F8FBFF36F8F00BF00BFFEE73F49084620
:1049D00000780190FF200A46107008460078009089
:1049E0009DF8000000F0F0009DF80020904201D1F9
:1049F000012000E0002050B900BF502080F3118852
:104A0000BFF34F8FBFF36F8F00BF00BFFEE79DF86E
:104A1000000000F050002E4A107007202D4A106050
:104A200009E02C480068401E2A4A10609DF80000EA
:104A30004006000E00909DF8000000F080008028E5
:104A4000EFD024480068C0F10700042801D10120FC
:104A500000E0002050B900BF502080F31188BFF360
:104A60004F8FBFF36F8F00BF00BFFEE7194800688C
:104A70000002184A10601046008800F4E0601060E0
:104A8000124A019810700F482030006840F47000FE
:104A90000C49203108600846006840F0704008600A
:104AA000FFF7B6FD00200C490860FBF7E1FB0B485F
:104AB000006840F0404009490860FBF7C5FB002052
:104AC0001CBD000000ED00E071C20F4100E400E0F9
:104AD000A0000020A40000209C00002034EF00E093
:104AE00010B500BF502080F31188BFF34F8FBFF384
:104AF0006F8F00BF00F0BCFB18B14FF0805004492D
:104B0000086000BF002080F3118800BF10BD0000C6
:104B100004ED00E02DE9F84380460E4617461D4699
:104B2000DDF82090B8F1000F01D0012000E0002056
:104B300050B900BF502080F31188BFF34F8FBFF3EF
:104B40006F8F00BF00BFFEE70DB1012000E0002025
:104B500050B900BF502080F31188BFF34F8FBFF3CF
:104B60006F8F00BF00BFFEE707B10EB1012000E06C
:104B7000002050B900BF502080F31188BFF34F8F41
:104B8000BFF36F8F00BF00BFFEE707B90EB901206A
:104B900000E0002050B900BF502080F31188BFF31F
:104BA0004F8FBFF36F8F00BF00BFFEE75020009014
:104BB0000098502801D1012000E0002050B900BF2A
:104BC000502080F31188BFF34F8FBFF36F8F00BF6A
:104BD00000BFFEE700BF2C464CB1012084F8460020
:104BE0004B463A46314640460094FEF7FFFF2046CA
:104BF000BDE8F88370B505460E462C4654B900BF93
:104C0000502080F31188BFF34F8FBFF36F8F00BF29
:104C100000BFFEE7FFF762FCD4E90F12206801FB3A
:104C20000200A0600020A06320686060E06B401E6E
:104C3000226C216800FB0211E160FF2084F844002F
:104C400084F845009EB9206908B9012000E00020E1
:104C5000A8B904F1100000F0FFFB80B14FF08050C4
:104C600009490860BFF34F8FBFF36F8F07E004F16E
:104C70001000FFF7FDFB04F12400FFF7F9FBFFF73D
:104C800057FC012070BD000004ED00E02DE9FF435A
:104C900083B0064688461D464FF00009344654B995
:104CA00000BF502080F31188BFF34F8FBFF36F8F89
:104CB00000BF00BFFEE7B8F1000F01D1206C08B9BA
:104CC000012000E0002050B900BF502080F311887F
:104CD000BFF34F8FBFF36F8F00BF00BFFEE7022D02
:104CE00002D1E06B012801D1012000E0002050B981
:104CF00000BF502080F31188BFF34F8FBFF36F8F39
:104D000000BF00BFFEE700F09DFA08B9059808B99A
:104D1000012000E0002050B900BF502080F311882E
:104D2000BFF34F8FBFF36F8F00BF00BFFEE700BF21
:104D3000FFF7D4FBA06BE16B884201D3022D28D191
:104D40002A4641462046FEF784FE0746606A08B9B7
:104D5000012000E0002068B904F1240000F07CFB91
:104D600088B14FF0805032490860BFF34F8FBFF3D6
:104D70006F8F08E03FB14FF080502D490860BFF3BE
:104D80004F8FBFF36F8FFFF7D3FB012007B0BDE854
:104D9000F083059818B9FFF7CBFB0020F6E7B9F1CF
:104DA000000F04D101A8FFF7EDFC4FF00109FFF758
:104DB000BFFBFFF791FDFFF791FB94F94400401C06
:104DC00010B9002084F8440094F94500401C10B943
:104DD000002084F84500FFF7ABFB05A901A800F00F
:104DE0005BF9F0B92046FFF716F8A0B104F1100006
:104DF0000599FFF7D9FC2046FFF7F1F900F078FBA1
:104E0000002895D14FF0805009490860BFF34F8FBB
:104E1000BFF36F8F8CE72046FFF7E1F900F068FBE6
:104E200086E72046FFF7DBF900F062FB0020ADE7E4
:104E300004ED00E02DE9F84F07468A4690461E46ED
:104E40003C4654B900BF502080F31188BFF34F8F08
:104E5000BFF36F8F00BF00BFFEE7BAF1000F01D1B3
:104E6000206C08B9012000E0002050B900BF50209C
:104E700080F31188BFF34F8FBFF36F8F00BF00BF68
:104E8000FEE7022E02D1E06B012801D1012000E0F3
:104E9000002050B900BF502080F31188BFF34F8F1E
:104EA000BFF36F8F00BF00BFFEE7FFF7C5FB00BF7A
:104EB0005021EFF3118081F31188BFF34F8FBFF3BF
:104EC0006F8F00BF0546A06BE16B884201D3022EB5
:104ED00025D194F945B0A06B00903246514620464A
:104EE000FEF7B7FD0BF1010088B9606A08B901202F
:104EF00000E0002050B904F1240000F0ADFA28B120
:104F0000B8F1000F02D00120C8F8000004E00BF156
:104F1000010040B284F845004FF0010901E04FF074
:104F2000000900BF85F3118800BF4846BDE8F88F2F
:104F30002DE9F74183B005460E464FF000082C4698
:104F400054B900BF502080F31188BFF34F8FBFF3D7
:104F50006F8F00BF00BFFEE70EB9206C08B90120BB
:104F600000E0002050B900BF502080F31188BFF34B
:104F70004F8FBFF36F8F00BF00BFFEE700F062F9F5
:104F800008B9059808B9012000E0002050B900BF19
:104F9000502080F31188BFF34F8FBFF36F8F00BF96
:104FA00000BFFEE700BFFFF799FAA76BF7B13146E4
:104FB0002046FEF739FD781EA063206908B901205C
:104FC00000E0002060B904F1100000F045FA38B1AB
:104FD0004FF080502F490860BFF34F8FBFF36F8FA2
:104FE000FFF7A6FA012006B0BDE8F081059818B9D0
:104FF000FFF79EFA0020F6E7B8F1000F04D101A8F0
:10500000FFF7C0FB4FF00108FFF792FAFFF764FCCF
:10501000FFF764FA94F94400401C10B9002084F8AA
:10502000440094F94500401C10B9002084F8450064
:10503000FFF77EFA05A901A800F02EF8F0B9204686
:10504000FEF7DCFEA0B104F124000599FFF7ACFBEC
:105050002046FFF7C4F800F04BFA0028A3D14FF028
:1050600080500C490860BFF34F8FBFF36F8F9AE7F2
:105070002046FFF7B4F800F03BFA94E72046FFF72C
:10508000AEF800F035FA2046FEF7B8FE00288AD0C8
:105090000020A8E704ED00E070B505460C4655B9C0
:1050A00000BF502080F31188BFF34F8FBFF36F8F85
:1050B00000BF00BFFEE754B900BF502080F3118845
:1050C000BFF34F8FBFF36F8F00BF00BFFEE7FFF747
:1050D00005FA124802686868131A2068401C08B96B
:1050E000002617E00E4928680968884204D06868DD
:1050F000904201D801260DE02068984207D9206827
:10510000C01A20602846FFF73DFB002602E0002081
:1051100020600126FFF70CFA304670BD3C000020ED
:10512000500000202DE9FF4F85B080468946174684
:10513000DDE912ABB800FFF791F8064656B15C20E6
:10514000FFF78CF804460CB1266304E03046FFF705
:105150000DFA00E000248CB1002084F85900CDE95C
:1051600000ABCDE902403A4649464046089BFEF76F
:1051700052FD2046FEF79EFB012501E04FF0FF3572
:10518000284609B0BDE8F08F2DE9F04F85B00746FD
:10519000884691469A46DDE90EB6109C0EB1012074
:1051A00000E0002050B900BF502080F31188BFF309
:1051B0004F8FBFF36F8F00BF00BFFEE70CB1012020
:1051C00000E0002050B900BF502080F31188BFF3E9
:1051D0004F8FBFF36F8F00BF00BFFEE75C200390CF
:1051E00003985C2801D1012000E0002050B900BFE5
:1051F000502080F31188BFF34F8FBFF36F8F00BF34
:1052000000BFFEE700BFB4B1AEB125462C462E6309
:10521000022085F85900002004A953464A46CDE9EA
:1052200000B1CDE9025041463846FEF7F4FC28466D
:10523000FEF740FB01E000200490049805B0BDE8B3
:10524000F08F00000549096809B9012005E004490B
:10525000096809B9022000E00020704744000020DE
:105260006000002001490868704700003C000020F1
:105270002DE9F0414FF000084348006800287BD139
:1052800042480068451C4148056015BB404800681D
:10529000006808B9012000E0002050B900BF50208C
:1052A00080F31188BFF34F8FBFF36F8F00BF00BF34
:1052B000FEE73748076837480068354908603548D1
:1052C000076035480068401C33490860FEF7D8FE87
:1052D00000BF3248006885423BD300BF2C480068BD
:1052E000006808B9012000E0002020B14FF0FF3035
:1052F0002A4908602CE026480068C068C4686668CF
:10530000B54202D22548066022E0201DFFF784F84E
:10531000A06A18B104F11800FFF77EF82049E06A8E
:105320000968884202D91E49E06A0860E16A01EB17
:1053300081011C4A02EB8100211DFFF7C3F81A49C5
:10534000E06A0968C96A8842C8D34FF00108C5E716
:1053500000BF15480068C06A00EB8000114951F891
:105360002000012801D94FF001081048006808B159
:105370004FF0010805E0FFE70D480068401C0C49AC
:1053800008604046BDE8F081600000203C0000203D
:105390002C00002030000020500000205800002089
:1053A0004000002008030020280000204C000020BE
:1053B0004800002070B505462C460026002D43D03D
:1053C00022480068844201D1012000E0002050B949
:1053D00000BF502080F31188BFF34F8FBFF36F8F52
:1053E00000BF00BFFEE7206D50B900BF502080F322
:1053F0001188BFF34F8FBFF36F8F00BF00BFFEE771
:10540000206D401E2065E16CE06A88421CD0206D52
:10541000D0B9201DFFF700F8E06CE062E06AC0F14F
:105420003800A0610A49E06A0968884202D908493F
:10543000E06A0860E16A01EB8101064A02EB810043
:10544000211DFFF73FF80126304670BD28000020DF
:10545000400000200803002070B50646F068C468CC
:1054600054B900BF502080F31188BFF34F8FBFF3B2
:105470006F8F00BF00BFFEE704F11800FEF7CCFFFE
:1054800015480068A0B9201DFEF7C6FF1349E06A61
:105490000968884202D91149E06A0860E16A01EBB3
:1054A00081010F4A02EB8100211DFFF70BF804E098
:1054B00004F118010B48FFF705F80B49E06A096889
:1054C000C96A884204D9012501200849086000E022
:1054D0000025284670BD000060000020400000202C
:1054E0000803002090070020280000204C00002026
:1054F00070B5002400263648006850B900BF50201F
:1055000080F31188BFF34F8FBFF36F8F00BF00BFD1
:10551000FEE7FEF7E3FF2E480068401E2C490860B6
:105520000846006800284ED12A48006800284AD062
:1055300023E02948C068C46804F11800FEF76CFF36
:10554000201DFEF769FF2549E06A0968884202D9F3
:105550002249E06A0860E16A01EB8101204A02EB1E
:105560008100211DFEF7AEFF1E49E06A0968C96A85
:10557000884202D301201C4908601748006808B916
:10558000012000E000200028D3D00CB1FEF778FD08
:105590001648056865B100BFFFF76AFE10B101202B
:1055A000114908606D1E002DF6D100200F490860DA
:1055B0000D48006838B1012630070D490860BFF377
:1055C0004F8FBFF36F8FFEF7B3FF304670BD000003
:1055D00060000020380000209007002040000020DC
:1055E00008030020280000204C0000204800002074
:1055F00004ED00E010B586B00024FEF7B7F91648B8
:105600000068D0B100200590049003AA04A905A861
:10561000FEF722FF0222DDE904100023CDE900217C
:1056200002900EA10F48039AFFF7AEFD0E490860E5
:105630000846006800B1012400BF54B900BF5020E3
:1056400080F31188BFF34F8FBFF36F8F00BF00BF90
:10565000FEE7204606B010BD6C000020546D72209D
:1056600053766300C5410008700000202DE9FF4714
:1056700004460D4616461F46DDF830804FF00009FF
:1056800054B900BF502080F31188BFF34F8FBFF390
:105690006F8F00BF00BFFEE71448006810B300958D
:1056A00001960294062D15DAFFF7CCFD022808D1E9
:1056B0000023424669460D480068FFF7E7FA814635
:1056C00010E000231A46694608480068FFF7DEFA32
:1056D000814607E000233A46694604480068FFF720
:1056E000A9FB8146484604B0BDE8F0876C00002065
:1056F0004FF04070E1EE100A70470000B857000804
:105700000000000000000000000000000000000099
:10571000000200001800000000000000000000006F
:10572000AC5700080000000000000000000000006E
:105730000000000000080000300000000000000031
:1057400000000000C4570008000000000000000036
:105750000000000000000000000400003100000014
:1057600000000000000000000006101600061016E1
:105770000000000000000000010203040607080901
:105780000000000001020304CDCCCC3D7B14AE3EF2
:10579000F4FD343FF4FD343F0000003F2DB25D3F87
:1057A0009A99993E9A99193ECDCC4C3D6D6F746F84
:1057B000725F6D6F7665000064656661756C745428
:1057C00061736B0072656D6F74655F636F6E747289
:1057D0006F6C0000F457000800000020A8000000D3
:1057E000C40100089C580008A80000209051000047
:1057F000E0010008000000000000000000000000C0
:105800000000000000000000000000000000000098
:1058100010000000010000000024F400000000005F
:105820000000000000000000000000000000000078
:105830000000000000000000000000000000000068
:105840000000000000000000000000000000000058
:105850000000000000000000000000000000000048
:105860000000000000000000000000000000000038
:105870000000000000000000000000000000000028
:105880000000000000000000000000000000000018
:0C589000AAAAAAAA000000000000000064
:040000050800018965
:00000001FF
